:1000000059C0FECFFDCFFCCF26C1FACFF9CFF8CF34
:10001000F7CFC6C0F5CFF4CFF3CFF2CFF1CFF0CF0B
:10002000EFCFEECFEDCF010000012E0020203A20CF
:1000300025322E3366005365742048756D693A2069
:1000400025322E3166004E6869657420446F3A206F
:1000500025322E316600446F20416D2020203A2049
:1000600025322E31660054696D653E200053543AA6
:10007000004320002D4E414E000080C001002D4E57
:10008000414E00494E46000004000A0026000200CE
:1000900060012A00070062016600040069016D002A
:1000A00003006D017100020091017A0001009701C7
:1000B0007C000000F894EE27ECBBF1E0FBBFEBBF47
:1000C000E5BFF8E1F1BDE1BD8DE0A2E0BB27ED9316
:1000D0008A95E9F780E094E0A0E6ED930197E9F7CF
:1000E000E8E8F0E085919591009761F0A591B591D0
:1000F00005901590BF01F00105900D920197E1F771
:10010000FB01F0CFEFE5EDBFE4E0EEBFC0E6D1E0EC
:100110001DC1E0D6BBDBE1D612DB1E2FDED658DBDD
:100120000E2FE0D6BADB41C6D5D6AEDBE1D607DB73
:100130001E2FDED64DDBDF01EAE0F0E000DB0E2F04
:10014000DCD6EAE0F0E044DB3E2FCCD6A32FA05D66
:1001500045D5A1DBB8C5BED61A93A981BA81EAE01C
:10016000F0E036DB1E2FA12FA05D38D518819DC58C
:1001700073DB8ADBC5D68F01F801C8D6CCD6CFD6C3
:10018000A0E0B0E080E291E4CDD6BAD69F01D801DC
:10019000CBDFA0E6B1E03AD5D901DDDF7CDBA2C53B
:1001A000C7D69A990EC09A9BFECFA394E4E0EA15B5
:1001B00010F4E1E001C0EA2DAE2EC8D6AA2DA05D54
:1001C0000DD5E2E0EA1509F59C991EC09C991CC06A
:1001D000C1D6C9D6CED6D6D6E0E0F0E060EF72E464
:1001E00060DA09F008F402C0D6D601C0B3D6C1D691
:1001F000E3E0EA93A3E0D4D4C5D6BADFD1D6D5D60E
:10020000A8EEB3E0BBD8E2CF25C0E3E0EA1511F5D4
:100210009C9920C09C991EC0D4D6A5D6DBD6A091AF
:100220007401B09175018091760190917701DBD6D0
:1002300009F008F402C0AFD601C0C3D6CBD6B0D601
:10024000E6E3F0E0D6D6BDD6D7D680D6DAD6A6E994
:10025000DBD6E0CF6DC06CD6A3D6E6E4F0E0C9D61D
:10026000E0917801F091790160917A0170917B01C0
:10027000C3D6CCD6A0E094D4C4D6AFEDAFD4A3E41B
:10028000ADD4A0917801B091790180917A019091DB
:100290007B01A9D630F4E0E1EA93A0E081D4A0E2AA
:1002A0009DD47ED6E6E5F0E0A4D6E0917C01F09105
:1002B0007D0160917E0170917F019ED6A7D6A1E05D
:1002C0006FD49FD6A5E28AD4A0917C01B0917D0124
:1002D00080917E0190917F0186D630F4EFE0EA9321
:1002E000A1E05ED4A0E27AD491D6A2E059D4A2E6ED
:1002F000B1E08CD4A52D8DD6A42D8BD6A72DBB27F0
:1003000008DFADE26BD4A92DBB2703DFAFE266D4D3
:10031000A82DBB27FEDE1AD6A9E6B1E077D432D6E7
:1003200027DFAFED5BD4ADE6B1E070D439D63DD672
:10033000E991EFBFF991E991B991A99199918991C9
:1003400079916991F990199009901895E1E0E8BBCD
:10035000EEE3E7BBECEFE5BBE0E0E4BBE2BBE2EFE2
:10036000E1BBE3B7E360E3BFE0E0E2BFE2EAEFBD99
:10037000E9E1EEBDE0E0EDBDECBDE8E8F3E1F7BD9D
:10038000E6BDE0E0EBBDEABDE9BDE8BDE2BDE5B537
:10039000E260E5BDE0E0E4BDE3BDE5BFE9B7E164EF
:1003A000E9BFE0E0EAB9E0E8E8B9E0E0E0BFE6B9DB
:1003B000EDB9E6BF92D72AD6E1E0EA93A0E05FD498
:1003C000A4E133D4A0E07CD0A4E61ED6F8D3F89400
:1003D000E8E7F1E00ED6ACE7B1E098D0E5E0F0E078
:1003E00008D6E4E0F0E005D6A7E0B0E060D4E6E0AF
:1003F000F0E0FFD5E9E0F0E0FCD5E8E0F0E0F9D589
:10040000ABE0B0E062D47894E0EAFFE0FBBDEABD87
:10041000DECFFFCFA09AA19AA99AA898A89AA998E6
:10042000A898A89AA99AA89808951A93A19AA99AFF
:1004300010E0193020F4A89AA8981F5FFACFEADFDD
:1004400019910895AA9322DA00E0A19A85E08A958D
:10045000F1F710E8113058F0A898EA81E12311F083
:10046000A99A01C0A998D9D5DCD5DDD5F3CFA89834
:10047000A198D3D5D6D5E0E09999E1E00E2FA898C0
:10048000AAEFC2D5E02F09DA10C4AA93FFD900E081
:10049000A19810E8113038F0C4D59999012BBDD539
:1004A000A898C1D5F7CFA19AB8D5EA81E03011F06C
:1004B000A99801C0A99AB5D5A898E02FEED9F5C39F
:1004C000AA93B3DFA6E0BEDFACE2B1E057D7A881C4
:1004D000B9DFE881E0939001D0C3AA93D5D9A5DF15
:1004E000AC81B0DF9999FECFA1E0CFDF1E2FA1E054
:1004F000CCDF0E2FA0E0C9DF3E2FF12FE0E0DF01BF
:10050000E02FF0E0EA2BFB2BC6D9A2C0E3D4BCD984
:10051000A3E0E3DF8F01A5E0E0DF9F01E091900120
:10052000E030A1F587D5AE81BF817DD983D58FD548
:100530007F936F93FF93EF9391D5ACEAB5EC87EA85
:1005400098E38ED5AF91BF918F919F9190D57F9376
:100550006F93FF93EF9382D5A4E5B3EE85E29DE31D
:100560000DD8AF91BF918F919F91B8D77F936F9323
:10057000FF93EF9373D5A2EAB7EE8BE396EB7ED5AC
:10058000FDD7AF91BF918F919F9132C07BD587D519
:100590004AD978D55CD57F936F93FF93EF935ED55F
:1005A000ACEAB5EC87EA9AE35BD5AF91BF918F9146
:1005B0009F915DD57F936F93FF93EF934FD5A4E504
:1005C000B3EE85E29FE3DAD7AF91BF918F919F9110
:1005D00085D77F936F93FF93EF9340D5A2E6BEEB51
:1005E0008CE39AEB4BD5CAD7AF91BF918F919F9176
:1005F00075D783D418D94FD975C36CD447D952D580
:10060000129607D93097F1F04DD54FD58F0130971D
:1006100061F00230E0E01E07A0F0F80131978F0191
:10062000AA81BB811496ED93FC933CD5129640D5DC
:100630003197AC81A08336D5ECD8FF2312F032D5A8
:1006400037D505C02FD5EFEFFFEFED93FC9325D9FC
:100650002596089533D5E0E8EA83EFE3EB8314D9D8
:10066000EE85FF85EF3FAFEFFA0739F4E885F985AE
:10067000C0D4A4E7B0E038D37AC0EF3FAFE7FA07C1
:1006800031F422D5B6D4A5E7B0E02ED370C0AB8547
:10069000A73010F0E6E0EB871B8519D511F01BD5CC
:1006A000FCCF1FD5EBD819F430E015D51BC03B8526
:1006B0001DD509F008F407C00ED518D518F020D5BF
:1006C00024D5FBCF08C012D528F41AD529D52ED5AC
:1006D0003150F9CF00D505D52ED528D507D510F046
:1006E0000FD513D510E0EB85E11708F10FD429D50C
:1006F00022D5DF01CB014BD3EC83FD836E837F8357
:10070000FFD48AD778D60E2F22D528D5FF27662783
:100710007727AAD6FBD332D7F3D401D407D5E12F5C
:100720001F5FE03001F713D5EEE2EC93DCCF1BD571
:100730003197AA85A08330302CF43195A885B985EE
:10074000EDE203C0A885B985EBE2EC930CD50BD59F
:100750000FD5F0D7E05DDB01EC9305D509D52CD89A
:10076000E05DDB01EC93A885B985E0E0EC9393D8DC
:1007700060960895AFD3EF97619784D810E0FE019B
:10078000E85AFF4F0190F081E02DE887F987FE01DC
:10079000EA5AFF4F0190F081E02DEE83FF837FD472
:1007A000E0E0F0E0ED93FC93DE01A45ABF4F80D46B
:1007B0003197E4912E2FE03009F4A2C1E12FE0300F
:1007C00031F4253211F411E001C0D7D498C1E130E1
:1007D000B9F4253211F4D1D491C112E0E0E0ED8BEF
:1007E00000E02D3211F401E08AC12B3219F4EBE262
:1007F000ED8B85C1203219F4E0E2ED8B80C102C09F
:10080000E23039F450E013E0203311F4006877C18E
:1008100002C0E33091F4203310F02A3308F007C00F
:10082000AAE05A9F502DE22FE0535E0F68C140E0CE
:100830002E3211F414E063C10FC0E43099F4203378
:1008400010F02A3308F008C00062AAE04A9F402D49
:10085000E22FE0534E0F53C12C3619F4026015E01D
:100860004EC103C0E53009F04AC1E22FE33639F446
:100870008BD491D489D4A481AA9394D43FC1E53474
:1008800011F0E53609F402C0E63699F591D495D415
:10089000C4D79AD49ED4AD85AA2322F0AD89AB32B9
:1008A00031F012C098D474D58FD4EDE2ED8B07FFF0
:1008B00004C0ED89EA9376D407C0EE85FF853196B2
:1008C0008FD43197AD89A08305FF46E0263639F4F1
:1008D00082D4BDD74A93AB89BC8969D207C07BD487
:1008E000B6D74A932A93AC89BD89B4DE61D47BD450
:1008F00018C0E33729F46DD47BD472D474D40AC001
:10090000E037A1F466D474D46BD4AE85BF8503D22E
:100910001E2F08600F77403011F0411708F001C01A
:10092000142F40E0E0E0EC8B30E05EC0E43611F0E4
:10093000E93611F4046002C0E53791F4EAE0EC8B8B
:1009400001FF07C0E0E0FAEC6AE97BE353D41AE068
:100950001FC0E0E1F7E260E070E04CD415E018C0A1
:10096000E83511F4086003C0E83709F0C7C0E0E1DA
:10097000EC8B01FF07C0E0E0F0E060E070E13AD40A
:1009800018E006C0E0E0F0E160E070E033D414E08D
:10099000403011F00F7701C041E001FF05C019D4CC
:1009A0000CD414963AD70AC002FF04C012D420D443
:1009B000AED604C00ED41CD466277727EA87FB87FF
:1009C0006C877D8702FF0FC0AD85AA232AF403D46C
:1009D00090D6FAD3EDE2ED8BED89E03019F01F5F90
:1009E0004F5F01C00B7F342F00FD13C0151710F4AB
:1009F000351708F00EC007FF08C002FF04C00B7FC8
:100A00002D89115001C020E301C020E2B6D351501E
:100A1000EDCF141780F4006102FF05C0F0D309F098
:100A2000515011504150E0E3EA93BCD3503009F0EB
:100A300051504150EECF312FEC89E030A9F43030E5
:100A400091F003FF05C0EE85FF852591C9D305C050
:100A5000AE85BF852D91AE87BF878FD3503009F00B
:100A600051503150ECCF41C0DCD381D62E2F2A30EB
:100A700030F003FF02C0295C01C0295A01C0205D8B
:100A800004FD1DC0213348F4D5D3A130E0E0BE07FA
:100A9000E0E08E07E0E09E0709F40BC0431740F446
:100AA000531710F000FF01C00EC020E207FF07C07F
:100AB00020E3006102FF03C0A2D309F051505DD3CF
:100AC000503009F051503150ACD385D67DD3EC89EC
:100AD000B1D3FF27662777274AD68CD3E889F989CF
:100AE0006A897B89CBD609F0BFCF00FF07C05030A1
:100AF00029F05150E0E2EA9355D3F9CF10E054CEFB
:100B0000CED287D6C6D6EF966F960895FF92F82E6E
:100B10002697BAD694D3309719F4EFEFFFEF1CC0A5
:100B2000DE011696DED58D018AD3EE83FF83E0E0E9
:100B3000E887E987DE011A96D4D56BD65AD21A9384
:100B40000A93EDEFF2E055D2DE011A9613DE9F0113
:100B5000A6D2E0E0EC93F9019ED62A96FF90089584
:100B6000AA93E2B3EF70AE2FE881E07FEA2BE2BBFD
:100B700085E08A95F1F7C59A8DE08A95F1F7C598D9
:100B80008DE08A95F1F779C0AA93A881E9DFE88121
:100B9000E295E883A881E4DF85E88A95F1F76DC0E6
:100BA000AA93E881F0E0EF56FE4FE081A981AE0FF5
:100BB000EBDFC980E881E093950122960895A2E0D9
:100BC000E3DFA3E021D2ACE0DFDFA1E0DDDFA3E0E3
:100BD0001BD2E0E0E0939501CE2E0895AA93A88160
:100BE000AA3021F0E0919601CE1650F00FD2A091DC
:100BF0009501AF5FA0939501D3DFA881AA30E9F1F9
:100C0000C394C39AA881C0DFC39837C063D11A9335
:100C1000A981BA81ED91A983BA831E2FE03019F022
:100C2000A12FDCDFF5CF188140C0AA93E1B3E06FBC
:100C3000E1BBBD9ABB9ABC9AC598C398C498E88199
:100C4000E0939601E058E0939301E881E054E0934B
:100C50009401A4E1D9D1F8D2F7D2F6D2A0E280DF94
:100C600088EC90E00197F1F7A8E28EDFA4E08CDF3A
:100C7000A5E88ADFA6E088DFA2DF21960895AA937F
:100C8000EA81E370EA83E981E03019F0EA81E0610A
:100C9000EA83E881E03019F0EA81E068EA83DBD298
:100CA000A7E054D3AA8152D32CD32396089512D10E
:100CB000D2D2A0E0D3D2D9D2A881B981D8D2DBD206
:100CC0001CD1EC931ED32696089504D1C4D2A3E080
:100CD000C5D2E5D1CCD211D1CAD2CDD2A881B981A9
:100CE000EC930FD328960895F5D0E991F991A99145
:100CF000B991CD0105900D920020E1F7FC01089516
:100D0000E9D0A991B991EE27FF276D91662311F0E3
:100D10003196FBCF0895DED0AA27BB27E991F99140
:100D20000590002011F01196FBCFFD01089594D598
:100D30007B816A81F981E88177FB770F67FD7160BC
:100D4000972F9E5781F078F0983190F4AA27BB270F
:100D5000882708948795B795A7959A95D1F7EA23A0
:100D6000FB23682305C0E8947727EE27FF27662733
:100D70006F77769508F4606877F9A991B9918991B0
:100D80009991EA17FB076807790797FB089564D5DF
:100D900054D5CDDF57D511F473D207C0EEF770D21A
:100DA000A0E0B0E080E89FE392D32496089586D136
:100DB000E0E0EA83EFE3EB8369D5EB85FC85EF3F69
:100DC000AFEFFA0729F45ED2AEE7B0E08DDF72C074
:100DD000EF3FAFE7FA0729F455D2AFE7B0E084DF81
:100DE00069C0AC85AA2332F450D2D2D253D257D2A2
:100DF000EDE2EC93A885A73010F0E6E0E8871885CF
:100E000066D121F052D29DD155D2FACF58D266D3B5
:100E100041D210E0E0E0F0E060E87FE34BD24FD257
:100E200040D460F042D27CD145D21F5F173228F007
:100E300029D2A3E8B0E058DF3DC0F1CF103021F453
:100E40002ED2E0E3EC9318C042D1B1F02ED279D18A
:100E500072D1DF01CB019BDF2DD231D2DDD3CBD2DA
:100E60000E2F1DD27BD1F0E020D251D4FDD286D3FB
:100E70002FD255D00FD2E8CFE885E030B9F00FD2AD
:100E8000EEE2EC93E885E150E887EF5F79F020D25D
:100E900047D100D2FAD1AFD20E2F01D25FD1F0E00C
:100EA00017D235D4E1D23BD0F5D1ECCFAE81BF81A2
:100EB000E0E0EC93F2D42D960895AA93E881E295B0
:100EC000EF70AE2FAA0FAA0FEA0FEE0FA991AF7025
:100ED000EA0F0895BA93AA930895AA81BB81EAE024
:100EE000F0E00895A12FA05D79DEA02FA05D76CE61
:100EF000AC81BD81E4E6F0E00895AC81BD81089548
:100F0000EC81FD816E817F8176D20895AC81BD81B7
:100F10008E819F81089566277727A6D20895A1D450
:100F2000D6D208952BD3EC83FD836E837F830895FF
:100F30000A921A92FA926A937A938A939A93AA934C
:100F4000BA93EA93FA93EFB7EA930895E0E0EA934D
:100F5000A3E026CEE0917001F091710160917201E1
:100F6000709173010895ADECBCEC8CEC9DE3B6D2AE
:100F70000895E0937001F093710160937201709392
:100F800073010895A0917001B09171018091720177
:100F9000909173010895E0E0F0E060E070E0089562
:100FA000E0E8F1E0FA93EA930895ECE2F0E0FA93D6
:100FB000EA93D0DF4CD484E0A9DD2896A0E8B1E024
:100FC00025CEE0917401F0917501609176017091E8
:100FD00077010895E0937401F093750160937601B1
:100FE000709377010895E0E0F0E068EC72E459D383
:100FF0000895FA93EA9308952AD484E087DD289629
:101000000895A0E8B1E002CEB0E0B8C1E0E0EA9314
:101010000895BB277ED8AAE3E1CD83E08A95F1F756
:101020000895A89AFACFA12FB0E0E2E0F0E09AD3B9
:101030001E2F0895F8016FDFAAE0B7ED83E29CE36D
:101040009DD2A0E0B0E080E292EC48D20895DF01AA
:10105000CB01E0E0F0E068EC71E461CFF9015BCF37
:101060008DD2AAE0B7ED83E29CE338D2089586D210
:10107000A0E0B0E080E890EC31D208957FD2DF01AB
:10108000CB01ECCFF80147DFAAE0B7ED83E29DE3A7
:1010900075D2A0E0B0E080E292EC20D20895AE815B
:1010A000BF810895AA81BB8108951496B2D3089593
:1010B000ED91FD913196FE93EE9308950BDF249709
:1010C000E0E0E883E9830895E885F9850895E12F54
:1010D0001150E03008951ADFE0E0F0E060E271E4E2
:1010E00021CFEC85FD856E857F850895EC81FD819E
:1010F0006E817F81AC85BD858E859F85D2D2089516
:10110000AC85BD858E859F850895EDECFCEC6CEC7F
:101110007DE334D2EC87FD876E877F873F5F08953C
:10112000E0E0F0E060E271E429D20895EC87FD8709
:101130006E877F870895A0E0B0E080E09FE3CED186
:101140000895EDECFCEC6CEC7DE318D20895A885D5
:10115000B9851196A887B98711970895E02FE05DAA
:10116000EC93E02F0895B0DF3196E887F987089572
:101170003197BF01A32FEAE008952A93AF81B88584
:10118000E985FA8509950895FE01E65AFF4F019019
:10119000F081E02D08953497DE01A65ABF4FED93FC
:1011A000FC930895AF81B885E985FA85099508957E
:1011B000FE017696EE87FF870895DE01A65ABF4F9F
:1011C0000D90BC91A02D0895EA87FB876C877D87E1
:1011D0000895DADFE0CFEA85FB856C857D8508958B
:1011E000EE87FF870895AE85BF858ADD1E2F08959F
:1011F000E4DF5BCFE88BF98B6A8B7B8B08950B7FE9
:10120000ED89EA93DE01A95ABF4F0D90BC91A02D44
:10121000FE01E75AFF4F0190F081E02D0995503013
:101220000895E889F9896A897B89AA85BB858C85B7
:101230009D850895A889B9898A899B890895DE01C9
:101240001C964FD2E6D20895A0E38ADC88EC90E0A9
:101250000197F1F7089546D0A0ED78C077D051D02E
:1012600041D0A1ED73D0A1E056C0AE2F26CEEC93B5
:10127000A1E051D0FACF16DFEC93A0E04CD0F5CF2F
:10128000D7D20895EE81FF81B4CEE985FA856B85CA
:101290007C850895E987FA876B877C870895FFDE50
:1012A0001196AE83BF8311970895AA81BB818C816B
:1012B0009D810895EA83FB836C837D830895EA8191
:1012C000FB816C817D81A985BA858B859C8508957C
:1012D000A985BA858B859C850895929893988A9A5A
:1012E0008B9815C08B988A98EE270000839B0895F1
:1012F000829B089504D08B9A02D08A9AE1E06DE037
:1013000007C08B9A8A9A03D08A98F9DF8B986BE191
:101310006A95F1F7089578E08A98F1DF829BFECF15
:10132000EEDF8894839908948A9AF1DFEE1F7A950C
:1013300099F77A2F772311F48B9801C08B9ADFDF0E
:101340008A98E5DF8A9ADBDF8B98D9CF78E0AA0FFD
:1013500010F48B9801C08B9ADADF8A98D0DF829BD9
:10136000FECFCDDF8A9A7A9591F78B98C8DF8A985D
:10137000CEDFE1E08399EE278A9AC1CF109639F04B
:1013800080ED97E00197F1F7A8951197C9F70895B7
:1013900030976040704009F070580895552342F42A
:1013A000503811F4E0FF04C03196691F791F6BF0CB
:1013B00050E8572711F45F93CFC05F3F31F0660FBD
:1013C000000C57956795752F08955F9300200AF0DC
:1013D000CFC0C8C050E8192E1522880F991F952735
:1013E000550F879550E8072E0522660F771F752742
:1013F000550F67950895689401C0E8945F93F2DFF4
:10140000703818F07F3F08F4A7C056E1571BAAF4C4
:10141000519558300EF4593030F0EFEFFFEF6FEF89
:101420007FE777F91AC077275523B9F0EE0FFF1F32
:10143000661F771F5A95D1F710C07727583028F0CC
:10144000EF2FF62F672F5850F9CF552331F07695AF
:101450006795F795E7955A95D1F700200AF449D199
:101460005F910895689401C0E8943097604070409F
:10147000B1F0002426F0772312F400943AD1172E0D
:101480007EE1112032F07A95EE0FFF1F661F111CCE
:10149000F9CFEF2FF62F612D5F938ADF5F910895CB
:1014A0004F93AF01FD01DA01AB01BC01CA01402D30
:1014B000012C142E4F910895EA0FFB1F681F089509
:1014C000E095F0956095EF5FFF4F6F4F08955F9344
:1014D00081DF903871F150E8152604C05F937ADF00
:1014E000903839F1703821F1572F591B2BF112F434
:1014F000D7DFFACF583118F0AA27BB2788275830F2
:1015000028F0AB2FB82F88275850F9CF552329F052
:101510008695B795A7955A95D9F7502D512572F014
:10152000CBDF38F46795F795E795739513F420C0F2
:10153000B7DF3EDF5F910895D8F7FBCFEA1BFB0BC7
:10154000680B51F010F40094BBDF662392F3EE0FAA
:10155000FF1F661F7A95CBF7EE27FF2766277727B1
:101560005F910895EFEFFFEF6FE77FEF5F910895D1
:10157000EFEFFFEF6FE77FE75F9108955F932ADF5B
:10158000703851F3903841F301240894791F23F403
:101590001CF300203AF3ECCF0F921F932F933F934D
:1015A0004F93112722279927689FA0018F9F302DE5
:1015B000410D591F6B9F300D411D591F8E9F27D024
:1015C000BF9F25D06A9F23D0BE9F1DD0AF9F1BD049
:1015D000AE9F110D291F391F491F591FE32FF42FEB
:1015E000652F522F4F913F912F911F910F9066239E
:1015F0002AF0550FEE1FFF1F661F02C073954BF2B6
:10160000CDDE5F910895100D211D391F02C0200D00
:10161000311D491F591F08955F93DCDE703821F496
:1016200011200AF49FCFA4CF903809F495CF01245C
:101630000894970B1BF4D4F30020F3CF792F1F935A
:101640002F933F934F9311241127222733274427A9
:10165000552790E2AE17BF078607410730F0AE1B53
:10166000BF0B860B410B089401C08894551F221FA5
:10167000331F111CAA1FBB1F881F441F9A9551F7C7
:10168000F901612D4F913F912F911F91662332F007
:10169000550FEE1FFF1F661F7A9543F27FDE5F91A5
:1016A000089599239AF0772342F0971748F029F488
:1016B000AE17BF07860720F031F0989488940895FC
:1016C0009894089408951894889408957723C2F7FD
:1016D000971798F3A9F7EA17FB07680788F399F3B8
:1016E000ECCF0024AF0DB01D0895F195E195F040C9
:1016F0000895F09560957095E195FF4F6F4F7F4F7E
:101700000895FE2FFF0FFF0B6F2F7F2F08956F2F70
:10171000660F660B762F0895002498E0AA0F001C30
:101720000E1A10F40E0E01C0A1609A95B9F7EA2FB7
:10173000A02D089554D0F0DF0EF4E1950895002413
:10174000112490E1AA0FBB1F001C111C0E1A1F0AC6
:1017500018F40E0E1F1E01C0A1609A9599F7FD01A5
:10176000D001089548D0EBDF0EF4BFDF08953F931A
:101770004F935F93002411244427552730E2AA0F8A
:10178000BB1F881F991F001C111C441F551F0E1AD8
:101790001F0A460B570B28F40E0E1F1E461F571F1D
:1017A00001C0A1603A9559F7FD01BC01D001CA0101
:1017B0005F914F913F910895E894A7FF02C0A195D2
:1017C0006894E7FDE195A8DFEA2F0EF4E19508950E
:1017D000B6DFFD010895CBDFFD01BC010895E8945B
:1017E000E7FF02C0E1956894A7FF04C0A19500F847
:1017F000039400FA0895E894F7FF02C076DF689436
:10180000B7FF06C0A095B095119600F8039400FAB2
:101810000895ED91FC9111970895ED91FD916D91D1
:101820007C9113970895ED93FD936D937C930895A8
:10183000E881F9816A817B810895A881B9818A81D3
:101840009B810895E883F9836A837B8308957A9363
:101850006A93FA93EA9308959A938A93BA93AA9310
:101860000895182E862F612D192E972F712D1B2E5E
:10187000BF2FF12D1A2EAE2FE12D08953097604025
:10188000704008955A934A933A932A931A930A936D
:1018900008955D814C813B812A81198108810895D9
:00000001FF
