:080000000C94E6000C940000D2
:100008000C9400000C9400000C9400000C947603EF
:100018000C9400000C9400000C9400000C94000058
:100028000C9400000C9400000C9400000C94000048
:100038000C9400000C9400000C9400000C94000038
:100048000C9400000C9400000C94000010181C1E66
:100058001C1810000000010100010000040000004D
:100068000500000004000000050000606A47000069
:10007800FA440000803F00606A470000FA4400002C
:10008800803F446F20416E204D6F6E20486F6300A3
:10009800546875792044756F6E6720313231343178
:1000A800303431005068756F6E6720566F202031EC
:1000B800323134313137340044616E67204B686F18
:1000C800692054616F205348542E2E2E0020202082
:1000D80020202020202020204374726C3A204F6E6C
:1000E800200020202020202020202020204374725F
:1000F8006C3A204F66660054656D703A00432020C4
:10010800202020200048756D693A002025202020F5
:10011800202020200053540043200053480080C072
:1001280001002D4E414E00494E46000001000200DC
:100138005C00040004005E000300F6026200030095
:10014800FE026600030006036A0003000E036E0049
:1001580004004003720004004403760004004803CE
:100168007A00040068037E0004006C038200040027
:10017800700386000E0060028A0014006E02980068
:1001880014008202AC0015009602C0001500AB02F4
:10019800D5001500C002EA000600D502FF000800DD
:1001A800DB0205010600E3020D010A00E902130162
:1001B8000300F302230102008903260101008F03D3
:1001C80028010000F894EE27ECBBF1E0F5BFE5BF8D
:1001D800F8E1F1BDE1BD8DE0A2E0BB27ED938A9582
:1001E800E9F780E098E0A0E6ED930197E9F7E4E30A
:1001F800F1E085919591009761F0A591B5910590F1
:100208001590BF01F00105900D920197E1F7FB01F0
:10021800F0CFEFE5EDBFE8E0EEBFC0E6D2E00C942A
:100228001E05BA93AA930E94FE0FAE81BF81E4E631
:10023800F0E00E947C0F8F01AE81BF810E947D0B90
:100248009F01AE81BF810E94870BAF01002E012A5A
:1002580069F4AFE50E94110B022E032A11F4AFE5F1
:1002680002C0A22FA05D0E94110B08C0A02FA05DA4
:100278000E94110BA22FA05D0E94110BA42FA05D5C
:100288000E94110B0E940510D3C3BA93AA931A9324
:10029800A981BA810E94870B1E2FA12FA05D0E9401
:1002A800110B1881F6C20E94B80F28970E94FE0F02
:1002B8000E948C0B8F01F801AE85BF8588899989CA
:1002C8000E94930B0E94980BA0E0B0E088EC92E4A7
:1002D8000E94A50EEE87FF87688B798B0E948C0B96
:1002E8009F01D801E4E6F0E00E947C0FAF01D8013D
:1002F8000E947D0BEC87FD87D8010E94870BEA8757
:10030800FB87D901EAE0F0E00E947C0FE887F987D3
:10031800D9010E94870BEE83FF83042E052A71F40E
:10032800A0E20E94110BEC85FD85309711F4A0E244
:1003380002C0AC85A05D0E94110B08C0A42FA05D6F
:100348000E94110BAC85A05D0E94110BAA85A05DCF
:100358000E94110BAEE20E94110BA885A05D0E94BD
:10036800110BAE81A05D0E94110B0E9405106296D0
:100378000895BA93AA93A881B981EAE0F0E00E94AF
:100388007C0FDF014EDFAEE20E94110BA881B9811C
:100398000E94870BDF0179DF22960895AA931A93AA
:1003A8000A93EA81EE0FEE0FEE0FE0640E2F10E0D5
:1003B800183068F40A930395EC81FD813196EC833B
:1003C800FD833197A4910E94ED0A1F5FF1CF198137
:1003D800088191C20E949D0BE0933803F093390382
:1003E80060933A0370933B030E94A80BA0914003CB
:1003F800B091410380914203909143030E94A50E5E
:10040800E0934C03F0934D0360934E0370934F03B6
:10041800A0913C03B0913D0380913E0390913F032E
:100428000E94A80B0E944E0EA0914403B091450370
:1004380080914603909147030E94B10BE0935803C3
:10044800F093590360935A0370935B03A091480398
:10045800B091490380914A0390914B030E94BA0BD3
:10046800A0913803B091390380913A0390913B03EE
:100478000E94C10BA0915403B0915503809156037B
:10048800909157030E94550EE0935003F093510347
:100498006093520370935303E0915803F09159030A
:1004A80060915A0370915B03A0914C03B0914D0386
:1004B80080914E0390914F030E94550EA0915003D6
:1004C800B091510380915203909153030E94550EAD
:1004D8000E94CC0B0E94D50B0E94DE0B30F0E0E0AE
:1004E800F8E36CE975E40E94CC0B0E94D50B0E94DE
:1004F800F30F34F0E0E0F0E060E87FE30E94CC0B1B
:10050800A52DB0E0119759F4E0915C03F0915D03DB
:1005180060915E0370915F030E94E20D02C0E1E00A
:10052800F0E0FBBDEABD0E94A80BE0933C03F0930A
:100538003D0360933E0370933F03E0915003F091B5
:1005480051036091520370915303E0935403F09365
:10055800550360935603709357036AC20E949D0B1C
:10056800E0936003F0936103609362037093630305
:100578000E94E50BA0916803B091690380916A031A
:1005880090916B030E94A50EE0937403F09375039A
:100598006093760370937703A0916403B091650329
:1005A80080916603909167030E94E50B0E944E0EAE
:1005B800A0916C03B0916D0380916E0390916F03CD
:1005C8000E94B10BE0938003F09381036093820350
:1005D80070938303A0917003B091710380917203AB
:1005E800909173030E94BA0BA0916003B0916103CC
:1005F80080916203909163030E94C10BA0917C03D8
:10060800B0917D0380917E0390917F030E94550EE7
:10061800E0937803F093790360937A0370937B03F4
:10062800E0918003F09181036091820370918303CC
:10063800A0917403B091750380917603909177032C
:100648000E94550EA0917803B091790380917A03A6
:1006580090917B030E94550E0E94EE0B0E94F70BAF
:100668000E94DE0B30F0E0E0F8E36CE975E40E94EC
:10067800EE0B0E94F70B0E94F30F34F0E0E0F0E07D
:1006880060E87FE30E94EE0BA52DB0E0119759F4C6
:10069800E0918403F091850360918603709187034C
:1006A8000E94E20D02C0E1E0F0E0F9BDE8BD0E9461
:1006B800E50BE0936403F09365036093660370931E
:1006C8006703E0917803F091790360917A03709160
:1006D8007B03E0937C03F0937D0360937E03709328
:1006E8007F03A6C10A921A92FA926A937A938A931E
:1006F8009A93AA93BA93EA93FA93EFB7EA93A6E385
:10070800B3E00E94000CA0913603B091370315970F
:100718005CF1E0912E03F0912F036091300370910A
:1007280031030E94B30FA0912003B091210380915F
:100738002203909123034EDEE0913203F0913303BC
:1007480060913403709135030E94B30FA091240384
:10075800B09125038091260390912703FFDEE0E006
:10076800E0933603E0933703AAE2B3E00E94000C5B
:100778000E94060C20F0E0E020FEE1E003C0E0E08B
:1007880020FCE1E00E94F90F20F80E94060C18F006
:10079800E0E0F0E004C0E0912A03F0912B03E0933D
:1007A8002A03F0932B03ACE2B3E00E94000CE9911A
:1007B800EFBFF991E991B991A991999189917991AD
:1007C8006991F9901990099018958A9A8B9A939A39
:1007D8009298929A93989298929A939A9298089546
:1007E8001A938B9A939A10E0193020F4929A92985F
:1007F8001F5FFACFEADF19910895AA931A930A9313
:1008080000E08B9A8BE08A95F1F710E8113060F0E0
:100818009298EA81E12311F0939A01C093980E947B
:100828000E0C0E94160CF2CF92988B980E940E0C18
:10083800E0E08399E1E00E2F9298AAEFB0E00E94E1
:10084800AB0D24C0AA931A930A9300E08B9810E882
:10085800113068F0929A85E08A95F1F78399012B17
:1008680085E08A95F1F792980E94160CF1CF8B9A41
:1008780085E08A95F1F7EA81E03011F0939801C09C
:10088800939A929A85E08A95F1F79298E02F1981C8
:10089800088123960895AA93A3DFA6E0AEDFACE211
:1008A800B1E00E94AB0DA881A8DFE881E09388033E
:1008B80021960895AA930E94001092DFAC819DDFD3
:1008C800839B02C07894FCCFF894AAE0B0E00E9421
:1008D800AB0DA1E0B7DF1E2FA1E0B4DF0E2FA0E023
:1008E800B1DF3E2FF12FE0E0DF01E02FF0E0EA2B4F
:1008F800FB2B0E94071025960895BA93AA930E948D
:100908000010A3E0D7DF8F01A5E0D4DF9F01E091BD
:100918008803E03011F00C94D3040E941E0CAE81C1
:10092800BF810E94A90F0E941E0C0E942D0C7F936C
:100938006F93FF93EF93F9010E94930BACEAB5EC28
:1009480087EA98E30E94340CAF91BF918F919F91F1
:100958000E943D0C7F936F93FF93EF93F9010E94E0
:10096800930BA4E5B3EE85E29DE30E94A50EAF913B
:10097800BF918F919F910E94550E7F936F93FF9324
:10098800EF93F9010E94930BA2EAB7EE8BE396EB83
:100998000E94460CAF91BF918F919F9141C00E94D8
:1009A8004F0CAE81BF810E94A90F0E944F0C0E947C
:1009B8002D0C7F936F93FF93EF93F9010E94930B94
:1009C800ACEAB5EC87EA9AE30E94340CAF91BF9188
:1009D8008F919F910E943D0C7F936F93FF93EF93AC
:1009E800F9010E94930BA4E5B3EE85E29FE30E9410
:1009F800A50EAF91BF918F919F910E94550E7F9345
:100A08006F93FF93EF93F9010E94930BA2E6BEEB5D
:100A18008CE39AEB0E94460CAF91BF918F919F9106
:100A28000E94550EAC81BD810E94A90F0E9407103B
:100A380028960895ECEFEBBBE0E0EABBE8BBEFEFEC
:100A4800E7BBE0E0E5BBEFEFE4BBE0E0E2BBE2EFF1
:100A5800E1BBE0E0E3BFE2BFECBFE2EAEFBDEAE101
:100A6800EEBDE0E0EDBDECBDE8E8F3E1F7BDE6BDC5
:100A7800E0E0EBBDEABDE9BDE8BDE2BDE5B5E26099
:100A8800E5BDE0E0E4BDE3BDE5BFE4BFE9B7E06490
:100A9800E9BFA4E10E944D0B0E94040BE3E0EA9336
:100AA800A0E00E94F50AA0E6B2E00E945E0CA1E078
:100AB8000E94F50AAEE6B2E00E945E0CA2E00E9437
:100AC800F50AA2E8B2E00E945E0CA3E00E94F50AD3
:100AD800A6E9B2E00E942B0BA1E0DDDEA0EDB7E0B5
:100AE8000E94AB0DE4E5F0E0FA93EA93A0E056DC4F
:100AF800E0E0E0932803E0932903A0912803B09154
:100B08002903149748F50E94630CA6E0B3E00E94FD
:100B1800680CA0E0B0E00E946E0CAEE0B3E00E946A
:100B2800680CA8E0B0E00E946E0CA6EFB2E00E944C
:100B3800680CA6E0B3E00E94780C0E94630CAEEF4C
:100B4800B2E00E94680CAEE0B3E00E94780CA8E224
:100B5800B3E00E94000CD1CF0E94820CCF990CC048
:100B6800CF9BFECF0E948A0C5394E3E0E51510F466
:100B7800E2E001C0E52D5E2EE2E0E51511F00C94EF
:100B88009007CA990CC0CA9BFECF0E948A0C439456
:100B9800E4E0E41510F4E1E001C0E42D4E2EE1E0BC
:100BA800E415B1F5CE991AC0CE9BFECF0E94910CE8
:100BB800A8F00E94990C0E948A0CA6EFB2E00E944D
:100BC800000CA091F602B091F70212971CF0E0E039
:100BD800F0E002C00E949F0C0E94A40CCB9918C0A0
:100BE800CB9BFECF0E94910C98F00E94990C0E941A
:100BF8008A0CA6EFB2E00E94B20CA091F702AA23D9
:100C08001AF4E1E0F0E002C00E949F0C0E94A40CDC
:100C18000E949F0C309711F00C94C206E2E0E41594
:100C2800B1F5CE9919C0CE9915C00E94910C88F0E3
:100C38000E94990CA8EFB2E00E94000C0E94B80C28
:100C48001A971CF0E0E0F0E002C00E94BD0C0E9480
:100C5800C20CE9CF0E948A0CCB9919C0CB9915C058
:100C68000E94910C88F00E94990CA8EFB2E00E94B3
:100C7800B20CA091F902AA231AF4E9E0F0E002C04C
:100C88000E94BD0C0E94C20CE9CF0E948A0CE3E0CE
:100C9800E415C1F5CE991BC0CE9917C00E94910CDE
:100CA80098F00E94990CAAEFB2E00E94000CA09163
:100CB800FA02B091FB021A971CF0E0E0F0E002C0E3
:100CC8000E94D00C0E94D50CE7CF0E948A0CCB99C9
:100CD80019C0CB9915C00E94910C88F00E94990CFC
:100CE800AAEFB2E00E94B20CA091FB02AA231AF468
:100CF800E9E0F0E002C00E94D00C0E94D50CE9CFD8
:100D08000E948A0CE4E0E415C1F5CE991BC0CE9987
:100D180017C00E94910C98F00E94990CACEFB2E0B9
:100D28000E94000CA091FC02B091FD021A971CF0E1
:100D3800E0E0F0E002C00E94E30C0E94E80CE7CF7C
:100D48000E948A0CCB9919C0CB9915C00E94910CAE
:100D580088F00E94990CACEFB2E00E94B20CA0910E
:100D6800FD02AA231AF4E9E0F0E002C00E94E30CB5
:100D78000E94E80CE9CF0E948A0CCEC0E2E0E4159C
:100D8800A1F5CE9918C0CE9BFECF0E94910C98F089
:100D98000E94990C0E948A0CA8EFB2E00E94000CF5
:100DA8000E94B80C13971CF0E0E0F0E002C00E942B
:100DB800BD0C0E94C20CCB9918C0CB9BFECF0E94E1
:100DC800910C98F00E94990C0E948A0CA8EFB2E04E
:100DD8000E94B20CA091F902AA231AF4E2E0F0E012
:100DE80002C00E94BD0C0E94C20C0E94B80C13974E
:100DF8001CF0E2E0F0E002C00E94BD0CE093F802B3
:100E0800F093F9020E94B80C129784F0EAEFF2E02E
:100E18000E94F60CECEFF2E00E94F60CE2E0E4151A
:100E280010F4E1E001C0E42D4E2E76C0E3E0E415B5
:100E3800C1F5CE991BC0CE9917C00E94910C98F0AD
:100E48000E94990CAAEFB2E00E94000CA091FA024D
:100E5800B091FB021A971CF0E0E0F0E002C00E949B
:100E6800D00C0E94D50CE7CF0E948A0CCB9919C0F0
:100E7800CB9915C00E94910C88F00E94990CAAEF9A
:100E8800B2E00E94B20CA091FB02AA231AF4E9E096
:100E9800F0E002C00E94D00C0E94D50CE9CF0E945D
:100EA8008A0CE4E0E415C1F5CE991BC0CE9917C0B1
:100EB8000E94910C98F00E94990CACEFB2E00E944D
:100EC800000CA091FC02B091FD021A971CF0E0E022
:100ED800F0E002C00E94E30C0E94E80CE7CF0E94F9
:100EE8008A0CCB9919C0CB9915C00E94910C88F037
:100EF8000E94990CACEFB2E00E94B20CA091FD02E6
:100F0800AA231AF4E9E0F0E002C00E94E30C0E9470
:100F1800E80CE9CF0E948A0CE3E0E51511F00C9487
:100F2800A808CA990CC0CA9BFECF0E948A0C739469
:100F3800E4E0E71510F4E1E001C0E72D7E2EE1E0E2
:100F4800E715E1F5CE9920C0CE9BFECF0E94910C0B
:100F5800D8F0A0912C03B0912D03E0E0F0E00E94BE
:100F6800690F0E948A0CAEEFB2E00E94000CA091BB
:100F7800FE02B091FF0212971CF0E0E0F0E002C020
:100F88000E94FB0C0E94000DCB9918C0CB9BFECF92
:100F98000E94910C98F00E94990C0E948A0CAEEF66
:100FA800B2E00E94B20CA091FF02AA231AF4E1E079
:100FB800F0E002C00E94FB0C0E94000D0E94FB0C96
:100FC800309711F00C949A08E2E0E715C1F5CE9934
:100FD8001BC0CE9917C00E94910C98F00E94990CE2
:100FE800A0E0B3E00E94000CA0910003B0910103BF
:100FF8001A971CF0E0E0F0E002C00E940E0D0E947B
:10100800130DE7CF0E948A0CCB9919C0CB9915C054
:101018000E94910C88F00E94990CA0E0B3E00E9415
:10102800B20CA0910103AA231AF4E9E0F0E002C08F
:101038000E940E0D0E94130DE9CF0E948A0CE3E076
:10104800E715C1F5CE991BC0CE9917C00E94910C27
:1010580098F00E94990CA2E0B3E00E94000CA091C5
:101068000203B09103031A971CF0E0E0F0E002C01D
:101078000E94210D0E94260DE7CF0E948A0CCB9971
:1010880019C0CB9915C00E94910C88F00E94990C48
:10109800A2E0B3E00E94B20CA0910303AA231AF4C1
:1010A800E9E0F0E002C00E94210D0E94260DE9CF80
:1010B8000E948A0CE4E0E715C1F5CE991BC0CE99D1
:1010C80017C00E94910C98F00E94990CA4E0B3E01C
:1010D8000E94000CA0910403B09105031A971CF01C
:1010E800E0E0F0E002C00E94340D0E94390DE7CF25
:1010F8000E948A0CCB9919C0CB9915C00E94910CFB
:1011080088F00E94990CA4E0B3E00E94B20CA09170
:101118000503AA231AF4E9E0F0E002C00E94340DA6
:101128000E94390DE9CF0E948A0C0EC0E0E0F3E07E
:101138000E94F60CE2E0F3E00E94F60CE4E0F3E033
:101148000E94F60CE1E07E2EE1E0E51511F40C9426
:101158004E09CD9966C0CD9BFECF0E948A0C0E9495
:101168009F0CE0930603F09307030E94BD0CE093E5
:101178000803F09309030E94D00CE0930A03F0934C
:101188000B030E94E30CE0930C03F0930D030E9401
:10119800FB0CE0930E03F0930F030E940E0DE093F7
:1011A8001003F09311030E94210DE0931203F093B2
:1011B80013030E94340DE0931403F09315030E9467
:1011C800470DA0E0B0E00E94DA0FA2E0B0E00E9474
:1011D8004C0D0E94DA0FA4E0B0E00E94510D0E946D
:1011E800DA0FA6E0B0E00E94560D0E94DA0F0E94C6
:1011F8005B0DA8E0B0E00E94DA0FAAE0B0E00E9420
:10120800600D0E94DA0FACE0B0E00E94650D0E940C
:10121800DA0FAEE0B0E00E946A0D0E94DA0F0E9479
:101228006F0DCC9936C0CC9BFECF0E948A0C0E94D1
:10123800470DE093F602F093F7020E944C0DE093FD
:10124800F802F093F9020E94510DE093FA02F0932C
:10125800FB020E94560DE093FC02F093FD020E94EF
:101268005B0DE093FE02F093FF020E94600DE09395
:101278000003F09301030E94650DE0930203F093CD
:1012880003030E946A0DE0930403F09305030E9490
:101298006F0D0AC0CC9908C0CC9BFECF0E948A0C67
:1012A8000E946F0DE2E02E26F894AAE0B0E00E94BA
:1012B800AB0DE1E0E51511F40E94820C789421FC55
:1012C80008C0E2EAEFBDEAE10E94740DABEAB2E0C1
:1012D80006C0E0E0EFBD0E94740DA0ECB2E00E94F1
:1012E8002B0BE0E0EA93A0E00E94F50AA5EDB2E03E
:1012F8000E942B0BA0912E03B0912F0380913003F5
:10130800909131030E945701A0E20E94110BAFEDAA
:101318000E94110BABEDB2E00E945E0CA1E00E94AE
:10132800F50AA3EEB2E00E942B0BA0913203B09114
:10133800330380913403909135030E945701A9EE3D
:10134800B2E00E942B0B0E949F0C0E947A0D0E9413
:10135800BD0C0E94800D0E94D00C0E94870D0E9437
:10136800E30CEA0FFB1F4F010E94FB0C0E947A0D51
:101378000E940E0D0E94800D0E94210D0E94870D73
:101388000E94340DEA0FFB1F5F010E94470D0E9467
:101398007A0D0E944C0D0E94800D0E94510D0E94F2
:1013A800870D0E94560DEA0FFB1F6F010E945B0D0F
:1013B8000E947A0D0E94600D0E94800D0E94650DAA
:1013C8000E94870D0E946A0DEA0FFB1FE093160327
:1013D800F0931703F4010E948F0DE0931803F09324
:1013E800190360931A0370931B03F5010E948F0D74
:1013F800E0931C03F0931D0360931E0370931F0377
:10140800F6010E948F0DE0932003F093210360936F
:10141800220370932303E0911603F09117030E94AF
:101428008F0DE0932403F0932503609326037093B4
:101438002703E0E00E94990DADE1B1E00E943A0B6C
:10144800E2E0E51511F4A0E001C0AEE30E94110B43
:10145800E1E0E51511F4D60101C0D4010E94BD01F7
:10146800E8E00E94990DAFED0E94110BA0E2B1E0F7
:101478000E943A0BA3EFB2E00E942B0BE3E0E515C4
:1014880011F4A0E001C0AEE30E94110BE1E0E51504
:1014980029F4A0911603B091170301C0D5010E9449
:1014A800BD01E3E10E94990DA5E20E94110BE2E063
:1014B800E51561F5E1E0E41541F420FC06C0E3E040
:1014C8000E94990DA0E20E94110BE2E0E41541F49C
:1014D80020FC06C0E4E00E94990DA0E20E94110BD6
:1014E800E3E0E41541F420FC06C0E5E00E94990D14
:1014F800A0E20E94110BE4E0E41541F420FC06C0D0
:10150800E7E00E94990DA0E20E94110BE3E0E515C7
:1015180061F5E1E0E71541F420FC06C0EEE00E9429
:10152800990DA0E20E94110BE2E0E71541F420FCBE
:1015380006C0EFE00E94990DA0E20E94110BE3E0C3
:10154800E71541F420FC06C0E0E10E94990DA0E2F5
:101558000E94110BE4E0E71541F420FC06C0E2E12B
:101568000E94990DA0E20E94110BF8CAFFCFAA931E
:10157800E881E07111F0C39A01C0C398E881E07274
:1015880011F0C29A01C0C298E881E07411F0C19AC2
:1015980001C0C198E881E07811F0C09A01C0C098F4
:1015A8008BE08A95F1F7909A8BE18A95F1F79098FC
:1015B8008BE18A95F1F79BC0AA93A881D8DFE881CF
:1015C800E295E883A881D3DF88EC90E00197F1F7F2
:1015D8008EC0AA93A981F0DF969AA881EDDF96982C
:1015E8000DC0AA93E881F0E0E757FC4FE081A9819C
:1015F800AE0FE2DF6980E881E0938D0322960895BB
:10160800A2E00E949D0DACE0D7DFA1E00E949D0DF5
:10161800E0E0E0938D036E2E0895AA93A881AA3086
:1016280021F0E0918E036E1660F0E0E0EA93A0915D
:101638008D03AF5FA0938D03D4DFA881AA3009F48E
:1016480056C06394969AA881B7DF969850C0BA930B
:10165800AA931A93A981BA81ED91A983BA831E2FFF
:10166800E03019F0A12FD9DFF5CF10C0BA93AA93B3
:101678001A93E981FA813196E983FA833197E491E3
:101688001E2FE03019F0A12FC8DFF3CF1881239661
:101698000895AA93BB9ABA9AB99AB89A889A8E9AD0
:1016A800899A909896989198E881E0938E03E058EB
:1016B800E0938B03E881E054E0938C03A4E1B0E06D
:1016C8000E94AB0D0E94A30D0E94A30D0E94A30DC2
:1016D800A0E24DDF80E991E00197F1F7A8E26CDF25
:1016E800A4E06ADFA5E868DFA6E066DF89DF219667
:1016F8000895E4E6F0E00E94940FDF01EAE0F0E0EC
:101708000E947C0F0895EAE0F0E00E94940F08958B
:10171800EE85FF85688979890E94E20D089566271C
:1017280077270E941B0E08950E94BD0F0E944E0E3F
:1017380008950E94B80FAC81BD818E819F810E945F
:10174800AE0F0E944E0E0895E0913803F0913903D0
:1017580060913A0370913B0308950E94A50EA0E0A2
:10176800B0E088EC90E40E94A50E0895E0E0F0E077
:1017780060E872E40E94A50E08950E94A50EDF019C
:10178800CB01E0E0F0E06AE774E40E94F30E08950C
:10179800E0935C03F0935D0360935E0370935F03D3
:1017A8000895A0915C03B0915D0380915E039091D0
:1017B8005F030895E0E0F0E46CE975E40E94380FF7
:1017C8000895E0916003F091610360916203709164
:1017D80063030895E0938403F0938503609386037D
:1017E800709387030895A0918403B0918503809135
:1017F8008603909187030895ED91FD913196FE93AC
:10180800EE930895A0912A03B0912B03A839E8E03C
:10181800BE07089585E08A95F1F7929A85E08A9542
:10182800F1F70895A12FB0E0E2E0F0E00E948F0FF9
:101838001E2F0895F80173DFAAE0B7ED83E29CE359
:101848000E94A50EA0E0B0E080E292EC0E94550E46
:101858000895DF01CB01E0E0F0E068EC71E464CFCB
:101868000E94A50EAAE0B7ED83E29CE30E94550E04
:1018780008950E94A50EA0E0B0E080E890EC0E94D8
:10188800550E08950E94A50EDF01CB01F90147DF2F
:101898000E94A50E0895F80142DFAAE0B7ED83E2A1
:1018A8009DE30E94A50EA0E0B0E080E292EC0E94C9
:1018B800550E08950E942B0BE0E0EA930895E091FD
:1018C8002803F09129030895EE0FFF1FEA0FFB1F6D
:1018D8000F01F5CFEE0FFF1FAE0FBF1F0E94CA0FFB
:1018E800D001ED93FC93EBCFEE0FFF1FAE0FBF1FA0
:1018F8000E94A50FD001ED93FC930895EEE2F3E06A
:10190800FA93EA93A2E3B3E00C948104C49AA8E2A0
:10191800B0E00E94AB0DC4980895A0912C03B0913B
:101928002D03AC3DE5E0BE070895E0E0E0932C030D
:10193800E0932D030895E091F602F091F7020895DF
:10194800E093F602F093F702E3E0EA93A3E00E9443
:10195800F50AA091F602A05D0C94110BED91FD9192
:101968003197FE93EE930895A091F802B091F90291
:101978000895E091F802F091F9020895E093F802D1
:10198800F093F902E4E0EA93A3E00E94F50AA0913B
:10199800F802A05D0C94110BE091FA02F091FB02A1
:1019A8000895E093FA02F093FB02E5E0EA93A3E0DE
:1019B8000E94F50AA091FA02A05D0C94110BE09127
:1019C800FC02F091FD020895E093FC02F093FD0201
:1019D800E7E0EA93A3E00E94F50AA091FC02A05D6B
:1019E8000C94110BA0E0B0E0A083B1830895E091BE
:1019F800FE02F091FF020895E093FE02F093FF02C9
:101A0800EEE0EA93A3E00E94F50AA091FE02A05D31
:101A18000C94110BE0910003F09101030895E093F9
:101A28000003F0930103EFE0EA93A3E00E94F50AB4
:101A3800A0910003A05D0C94110BE0910203F091BA
:101A480003030895E0930203F0930303E0E1EA93AC
:101A5800A3E00E94F50AA0910203A05D0C94110B6B
:101A6800E0910403F09105030895E0930403F093D3
:101A78000503E2E1EA93A3E00E94F50AA0910403BA
:101A8800A05D0C94110BE0910603F09107030895F3
:101A9800E0910803F09109030895E0910A03F09199
:101AA8000B030895E0910C03F0910D030895E09164
:101AB8000E03F0910F030895E0911003F0911103C4
:101AC8000895E0911203F09113030895E09114032F
:101AD800F09115030895E1E05E2E4E2E7E2E0895B6
:101AE800EEBDE0E0EA93A2E00C94F50AA8EEB3E0BC
:101AF8000E94770FBF010895A4E6B0E00E94770F17
:101B08006E0F7F1F0895AAE0B0E00E94770FDB01F7
:101B1800AE0FBF1F089503DEDF01CB01E0E0F0E068
:101B280060E271E40E94F30E0895EA93A3E00C9436
:101B3800F50A0E94E00AA3E0B0E00C94AB0DA0E324
:101B48000E94BB0A80E991E00197F1F70895109689
:101B580039F080EA9FE00197F1F7A8951197C9F746
:101B68000895552342F4503811F4E0FF04C031962B
:101B7800691F791F6BF050E8572711F45F93CFC0A6
:101B88005F3F31F0660F000C57956795752F0895E4
:101B98005F9300200AF0CFC0C8C050E8192E152264
:101BA800880F991F9527550F879550E8072E05220E
:101BB800660F771F7527550F67950895689401C0BC
:101BC800E8945F93F2DF703818F07F3F08F4A7C0FD
:101BD80056E1571BAAF4519558300EF4593030F09D
:101BE800EFEFFFEF6FEF7FE777F91AC077275523FD
:101BF800B9F0EE0FFF1F661F771F5A95D1F710C077
:101C08007727583028F0EF2FF62F672F5850F9CF45
:101C1800552331F076956795F795E7955A95D1F75D
:101C280000200AF445D15F910895689401C0E894B2
:101C3800309760407040B1F0002426F0772312F40A
:101C4800009436D1172E7EE1112032F07A95EE0FEE
:101C5800FF1F661F111CF9CFEF2FF62F612D5F9321
:101C68008ADF5F9108954F93AF01FD01DA01AB015F
:101C7800BC01CA01402D012C142E4F910895EA0F82
:101C8800FB1F681F0895E095F0956095EF5FFF4F83
:101C98006F4F08955F9381DF903871F150E81526F2
:101CA80004C05F937ADF903839F1703821F1572FEB
:101CB800591B2BF112F4D7DFFACF583118F0AA27A5
:101CC800BB278827583028F0AB2FB82F88275850C3
:101CD800F9CF552329F08695B795A7955A95D9F741
:101CE800502D512572F0CBDF38F46795F795E795BD
:101CF800739513F420C0B7DF3EDF5F910895D8F7DE
:101D0800FBCFEA1BFB0B680B51F010F40094BBDF10
:101D1800662392F3EE0FFF1F661F7A95CBF7EE2727
:101D2800FF27662777275F910895EFEFFFEF6FE7AB
:101D38007FEF5F910895EFEFFFEF6FE77FE75F9128
:101D480008955F932ADF703851F3903841F30124E6
:101D58000894791F23F41CF300203AF3ECCF0F9278
:101D68001F932F933F934F93112722279927689FFB
:101D7800A0018F9F302D410D591F6B9F300D411DC4
:101D8800591F8E9F27D0BF9F25D06A9F23D0BE9F03
:101D98001DD0AF9F1BD0AE9F110D291F391F491FA2
:101DA800591FE32FF42F652F522F4F913F912F91F9
:101DB8001F910F9066232AF0550FEE1FFF1F661F15
:101DC80002C073954BF2CDDE5F910895100D211D71
:101DD800391F02C0200D311D491F591F08955F93F7
:101DE800DCDE703821F411200AF49FCFA4CF90389C
:101DF80009F495CF01240894970B1BF4D4F3002021
:101E0800F3CF792F1F932F933F934F9311241127CB
:101E1800222733274427552790E2AE17BF078607A6
:101E2800410730F0AE1BBF0B860B410B089401C075
:101E38008894551F221F331F111CAA1FBB1F881F00
:101E4800441F9A9551F7F901612D4F913F912F91B8
:101E58001F91662332F0550FEE1FFF1F661F7A95FC
:101E680043F27FDE5F91089599239AF0772342F039
:101E7800971748F029F4AE17BF07860720F031F00E
:101E88009894889408959894089408951894889438
:101E980008957723C2F7971798F3A9F7EA17FB076E
:101EA800680788F399F3ECCFF195E195F040089530
:101EB800F09560957095E195FF4F6F4F7F4F0895AE
:101EC8006F2F660F660B762F0895EA17FB07E1E080
:101ED80009F0EE270895FA9FF02DEB9FF00DEA9F89
:101EE800E02DF10D08951FD0F6DF0EF4DDDF089523
:101EF8000024112490E1AA0FBB1F001C111C0E1A0C
:101F08001F0A18F40E0E1F1E01C0A1609A9599F7BA
:101F1800FD01D001089507D0EBDF0EF4C5DF089569
:101F2800E7DFFD010895E894F7FF02C0BDDF68947C
:101F3800B7FF06C0A095B095119600F8039400FA73
:101F48000895ED91FC9111970895ED93FD936D938C
:101F58007C930895E881F9816A817B8108957A9359
:101F68006A93FA93EA9308959A938A93BA93AA93F1
:101F78000895182E862F612D192E972F712D1B2E3F
:101F8800BF2FF12D1A2EAE2FE12D0895119602D0F4
:101F9800FE2F1197E199FECFFF93FFB7F894AEBBE0
:101FA800BFBBE09AEDB3FFBFFF91089507D011962C
:101FB800EF93EF2F03D0EF9111970895E19B02C0A3
:101FC800A895FCCF9FB7F894AEBBBFBBE09A8DB382
:101FD800E81719F0EDBBE29AE19A9FBF0895002433
:101FE8000A160B06080609060895E894EE2309F078
:101FF800689408955A934A933A932A931A930A93A2
:1020080008955D814C813B812A8119810881089559
:00000001FF
